{
  "contractName": "Deal",
  "abi": [
    {
      "constant": true,
      "inputs": [],
      "name": "seller",
      "outputs": [
        {
          "name": "",
          "type": "address"
        }
      ],
      "payable": false,
      "stateMutability": "view",
      "type": "function"
    },
    {
      "constant": true,
      "inputs": [
        {
          "name": "",
          "type": "address"
        }
      ],
      "name": "balances",
      "outputs": [
        {
          "name": "",
          "type": "uint256"
        }
      ],
      "payable": false,
      "stateMutability": "view",
      "type": "function"
    },
    {
      "constant": true,
      "inputs": [],
      "name": "owner",
      "outputs": [
        {
          "name": "",
          "type": "address"
        }
      ],
      "payable": false,
      "stateMutability": "view",
      "type": "function"
    },
    {
      "constant": true,
      "inputs": [
        {
          "name": "",
          "type": "uint256"
        }
      ],
      "name": "items",
      "outputs": [
        {
          "name": "seller",
          "type": "address"
        },
        {
          "name": "owner",
          "type": "address"
        },
        {
          "name": "forSale",
          "type": "bool"
        },
        {
          "name": "price",
          "type": "uint256"
        }
      ],
      "payable": false,
      "stateMutability": "view",
      "type": "function"
    },
    {
      "inputs": [],
      "payable": false,
      "stateMutability": "nonpayable",
      "type": "constructor"
    },
    {
      "anonymous": false,
      "inputs": [
        {
          "indexed": false,
          "name": "index",
          "type": "uint256"
        }
      ],
      "name": "ownerChanged",
      "type": "event"
    },
    {
      "anonymous": false,
      "inputs": [
        {
          "indexed": false,
          "name": "index",
          "type": "uint256"
        },
        {
          "indexed": false,
          "name": "price",
          "type": "uint256"
        }
      ],
      "name": "priceChanged",
      "type": "event"
    },
    {
      "anonymous": false,
      "inputs": [
        {
          "indexed": false,
          "name": "index",
          "type": "uint256"
        },
        {
          "indexed": false,
          "name": "price",
          "type": "uint256"
        },
        {
          "indexed": false,
          "name": "forSale",
          "type": "bool"
        }
      ],
      "name": "availabilityChanged",
      "type": "event"
    },
    {
      "constant": false,
      "inputs": [
        {
          "name": "index",
          "type": "uint256"
        },
        {
          "name": "price",
          "type": "uint256"
        }
      ],
      "name": "itemForSale",
      "outputs": [],
      "payable": false,
      "stateMutability": "nonpayable",
      "type": "function"
    },
    {
      "constant": true,
      "inputs": [],
      "name": "getItems",
      "outputs": [
        {
          "name": "",
          "type": "address[]"
        },
        {
          "name": "",
          "type": "bool[]"
        },
        {
          "name": "",
          "type": "uint256[]"
        }
      ],
      "payable": false,
      "stateMutability": "view",
      "type": "function"
    },
    {
      "constant": false,
      "inputs": [
        {
          "name": "index",
          "type": "uint256"
        }
      ],
      "name": "buyItem",
      "outputs": [],
      "payable": true,
      "stateMutability": "payable",
      "type": "function"
    },
    {
      "constant": false,
      "inputs": [],
      "name": "withDraw",
      "outputs": [],
      "payable": true,
      "stateMutability": "payable",
      "type": "function"
    },
    {
      "constant": false,
      "inputs": [
        {
          "name": "index",
          "type": "uint256"
        }
      ],
      "name": "sell",
      "outputs": [],
      "payable": false,
      "stateMutability": "nonpayable",
      "type": "function"
    },
    {
      "constant": false,
      "inputs": [],
      "name": "destroy",
      "outputs": [],
      "payable": true,
      "stateMutability": "payable",
      "type": "function"
    }
  ],
  "bytecode": "0x608060405234801561001057600080fd5b50336000806101000a81548173ffffffffffffffffffffffffffffffffffffffff021916908373ffffffffffffffffffffffffffffffffffffffff1602179055506103e8600360006003811061006257fe5b60030201600201819055506001600360006003811061007d57fe5b6003020160010160146101000a81548160ff0219169083151502179055506103e860036001600381106100ac57fe5b6003020160020181905550600160036001600381106100c757fe5b6003020160010160146101000a81548160ff0219169083151502179055506103e860036002600381106100f657fe5b60030201600201819055506001600360026003811061011157fe5b6003020160010160146101000a81548160ff021916908315150217905550610be98061013e6000396000f3fe6080604052600436106100915760003560e01c806383197ef01161005957806383197ef01461029d5780638da5cb5b146102a7578063bfb231d2146102fe578063e4849b32146103be578063e7fb74c7146103f957610091565b806308551a53146100965780630fdb1c10146100ed5780631dddd834146100f757806327e235e31461013c578063410d59cc146101a1575b600080fd5b3480156100a257600080fd5b506100ab610427565b604051808273ffffffffffffffffffffffffffffffffffffffff1673ffffffffffffffffffffffffffffffffffffffff16815260200191505060405180910390f35b6100f561044d565b005b34801561010357600080fd5b5061013a6004803603604081101561011a57600080fd5b81019080803590602001909291908035906020019092919050505061052a565b005b34801561014857600080fd5b5061018b6004803603602081101561015f57600080fd5b81019080803573ffffffffffffffffffffffffffffffffffffffff16906020019092919050505061061e565b6040518082815260200191505060405180910390f35b3480156101ad57600080fd5b506101b6610636565b60405180806020018060200180602001848103845287818151815260200191508051906020019060200280838360005b838110156102015780820151818401526020810190506101e6565b50505050905001848103835286818151815260200191508051906020019060200280838360005b83811015610243578082015181840152602081019050610228565b50505050905001848103825285818151815260200191508051906020019060200280838360005b8381101561028557808201518184015260208101905061026a565b50505050905001965050505050505060405180910390f35b6102a56107d5565b005b3480156102b357600080fd5b506102bc61082b565b604051808273ffffffffffffffffffffffffffffffffffffffff1673ffffffffffffffffffffffffffffffffffffffff16815260200191505060405180910390f35b34801561030a57600080fd5b506103376004803603602081101561032157600080fd5b8101908080359060200190929190505050610850565b604051808573ffffffffffffffffffffffffffffffffffffffff1673ffffffffffffffffffffffffffffffffffffffff1681526020018473ffffffffffffffffffffffffffffffffffffffff1673ffffffffffffffffffffffffffffffffffffffff1681526020018315151515815260200182815260200194505050505060405180910390f35b3480156103ca57600080fd5b506103f7600480360360208110156103e157600080fd5b81019080803590602001909291905050506108d0565b005b6104256004803603602081101561040f57600080fd5b8101908080359060200190929190505050610947565b005b600160009054906101000a900473ffffffffffffffffffffffffffffffffffffffff1681565b60003390506000600260008373ffffffffffffffffffffffffffffffffffffffff1673ffffffffffffffffffffffffffffffffffffffff168152602001908152602001600020549050600081116104a357600080fd5b6000600260008473ffffffffffffffffffffffffffffffffffffffff1673ffffffffffffffffffffffffffffffffffffffff168152602001908152602001600020819055508173ffffffffffffffffffffffffffffffffffffffff166108fc829081150290604051600060405180830381858888f1935050505061052657600080fd5b5050565b60006003836003811061053957fe5b6003020190508060010160009054906101000a900473ffffffffffffffffffffffffffffffffffffffff1673ffffffffffffffffffffffffffffffffffffffff163373ffffffffffffffffffffffffffffffffffffffff1614801561059e5750600082115b6105a757600080fd5b60018160010160146101000a81548160ff0219169083151502179055508181600201819055507f07638c69a17ad06562da6171508fae74d4279a6bc61cecdc08fef0e79fa08f60838360016040518084815260200183815260200182151515158152602001935050505060405180910390a1505050565b60026020528060005260406000206000915090505481565b606080606080600360405190808252806020026020018201604052801561066c5781602001602082028038833980820191505090505b509050606060036040519080825280602002602001820160405280156106a15781602001602082028038833980820191505090505b509050606060036040519080825280602002602001820160405280156106d65781602001602082028038833980820191505090505b50905060008090505b60038110156107c3576000600382600381106106f757fe5b6003020190508060000160009054906101000a900473ffffffffffffffffffffffffffffffffffffffff1685838151811061072e57fe5b602002602001019073ffffffffffffffffffffffffffffffffffffffff16908173ffffffffffffffffffffffffffffffffffffffff1681525050806002015483838151811061077957fe5b6020026020010181815250508060010160149054906101000a900460ff168483815181106107a357fe5b6020026020010190151590811515815250505080806001019150506106df565b50828282955095509550505050909192565b60003390508073ffffffffffffffffffffffffffffffffffffffff163373ffffffffffffffffffffffffffffffffffffffff161461081257600080fd5b8073ffffffffffffffffffffffffffffffffffffffff16ff5b6000809054906101000a900473ffffffffffffffffffffffffffffffffffffffff1681565b6003816003811061085d57fe5b600302016000915090508060000160009054906101000a900473ffffffffffffffffffffffffffffffffffffffff16908060010160009054906101000a900473ffffffffffffffffffffffffffffffffffffffff16908060010160149054906101000a900460ff16908060020154905084565b6000600382600381106108df57fe5b60030201905060018160010160146101000a81548160ff02191690831515021790555033600160006101000a81548173ffffffffffffffffffffffffffffffffffffffff021916908373ffffffffffffffffffffffffffffffffffffffff1602179055505050565b60006003826003811061095657fe5b6003020190508060010160009054906101000a900473ffffffffffffffffffffffffffffffffffffffff1673ffffffffffffffffffffffffffffffffffffffff163373ffffffffffffffffffffffffffffffffffffffff16141580156109ca57508060010160149054906101000a900460ff165b80156109da575080600201543410155b6109e357600080fd5b600073ffffffffffffffffffffffffffffffffffffffff168160000160009054906101000a900473ffffffffffffffffffffffffffffffffffffffff1673ffffffffffffffffffffffffffffffffffffffff161415610ab0573460026000600160009054906101000a900473ffffffffffffffffffffffffffffffffffffffff1673ffffffffffffffffffffffffffffffffffffffff1673ffffffffffffffffffffffffffffffffffffffff16815260200190815260200160002060008282540192505081905550610b22565b34600260008360000160009054906101000a900473ffffffffffffffffffffffffffffffffffffffff1673ffffffffffffffffffffffffffffffffffffffff1673ffffffffffffffffffffffffffffffffffffffff168152602001908152602001600020600082825401925050819055505b338160000160006101000a81548173ffffffffffffffffffffffffffffffffffffffff021916908373ffffffffffffffffffffffffffffffffffffffff16021790555060008160010160146101000a81548160ff0219169083151502179055507f6ee64a44aae06a521ced06aa522ff0ce685deefab5430f727f1438c6d7f8978d826040518082815260200191505060405180910390a1505056fea165627a7a7230582023bd7b11883bd74ea8bb16fe8ebe29c481043bd1349763bf55ef2c3b64125bad0029",
  "source": "// pragma solidity ^0.5.0;\n\n// contract Deal {\n//     address public owner;\n//     // address public buyrAddr;\n//     mapping(address => uint) public balances;\n\n\n// struct Item {\n// bytes32 ownerid;\n// address owner;\n// bool forSale;\n// uint price;\n// }\n// mapping(bytes32=>Item) idAssetMap;\n\n// Item[13] public items;\n\n// event ownerChanged(bytes32 AssetId);\n// event priceChanged(uint index, uint price);\n// event availabilityChanged(uint index, uint price,bool forSale);\n\n// constructor() public {\n//     owner = msg.sender;\n//     items[0].price = 1000;\n//     items[0].forSale = true;\n//     items[1].price = 1000;\n//     items[1].forSale = true;\n//     items[2].price = 1000;\n//     items[2].forSale = true;\n//     items[3].price = 1000;\n//     items[3].forSale = true;\n//     items[4].price = 1000;\n//     items[4].forSale = true;\n//     items[5].price = 1000;\n//     items[5].forSale = true;\n//     items[6].price = 1000;\n//     items[6].forSale = true;\n//     items[7].price = 1000;\n//     items[7].forSale = true;\n//     items[8].price = 1000;\n//     items[8].forSale = true;\n//     items[9].price = 1000;\n//     items[9].forSale = true;\n//     items[10].price = 1000;\n//     items[10].forSale = true;\n//     items[11].price = 1000;\n//     items[11].forSale = true;\n//     items[12].price = 1000;\n//     items[12].forSale = true;\n\n// }\n// function itemForSale(uint index, uint price) public {\n//     Item storage item = items[index];\n\n//     require(msg.sender == item.owner && price > 0);\n    \n//     item.forSale = true;\n//     item.price = price;\n//     emit availabilityChanged(index, price, true);\n// }\n\n// function getItems() public view returns(address[] memory, bool[] memory, uint[] memory){\n//     address[] memory  addr = new address[](13);\n//     bool[] memory available = new bool[](13);\n//     uint[] memory price = new uint[](13);\n\n//     for(uint i = 0; i<13; i++){\n//         Item storage item = items[i];\n//         addr[i] = item.owner;\n//         price[i] = item.price;\n//         available[i] = item.forSale;\n//     }\n//     return (addr, available, price);\n// }\n\n// function buyItem(uint) public payable{\n//     Item storage item = items[index];\n//     // idAssetMap[AssetId].ownerid = AssetId;\n\n//     require(msg.sender != item.owner && item.forSale && msg.value >= item.price);\n\n//     if(address(item.owner) == address(0x0)){\n//         balances[owner] +=msg.value;\n//     } else{\n//         balances[item.owner] += msg.value;\n//     }\n//     item.owner =msg.sender;\n//     item.forSale = false;\n\n//     emit ownerChanged(AssetId);\n// }\n\n// function withDraw() public  payable{\n//     address payable payee = msg.sender;\n//     uint payment = balances[payee];\n\n//     require(payment > 0);\n\n//     balances[payee] = 0;\n//     require(payee.send(payment));\n// }\n\n// function destroy() payable public{\n//     address payable owners = msg.sender;\n//     require((msg.sender == owners));\n//     selfdestruct(owners);\n// }\n// }\n// pragma solidity ^0.5.0;\n\n// contract Deal {\n//     address public owner;\n//     // address public buyrAddr;\n//     address public seller;\n//     mapping(address => uint) public balances;\n\n\n// struct Item {\n// address seller;\n// address owner;\n// bool forSale;\n// uint price;\n// }\n\n// Item[3] public items;\n\n// event ownerChanged(uint index);\n// event priceChanged(uint index, uint price);\n// event availabilityChanged(uint index, uint price,bool forSale);\n\n// constructor() public {\n//     seller = msg.sender;\n//     items[0].price = 1000;\n//     items[0].forSale = true;\n//     items[1].price = 1000;\n//     items[1].forSale = true;\n//     items[2].price = 1000;\n//     items[2].forSale = true;\n// }\n// function itemForSale(uint index, uint price) public {\n//     Item storage item = items[index];\n\n//     require(msg.sender == item.owner && price > 0);\n    \n//     item.forSale = true;\n//     item.price = price;\n//     emit availabilityChanged(index, price, true);\n// }\n\n// function getItems() public view returns(address[] memory, bool[] memory, uint[] memory){\n//     address[] memory  addr = new address[](3);\n//     bool[] memory available = new bool[](3);\n//     uint[] memory price = new uint[](3);\n\n//     for(uint i = 0; i<3; i++){\n//         Item storage item = items[i];\n//         addr[i] = item.owner;\n//         price[i] = item.price;\n//         available[i] = item.forSale;\n//     }\n//     return (addr, available, price);\n// }\n\n// function buyItem(uint index) public payable{\n//     Item storage item = items[index];\n\n//     require(msg.sender != item.seller && item.forSale && msg.value >= item.price);\n\n//     if(address(item.seller) == address(0x0)){\n//         balances[owner] +=msg.value;\n//     } else{\n//         balances[item.owner] += msg.value;\n//     }\n//     // item.owner =msg.sender;\n//     // item.forSale = false;\n\n//     emit ownerChanged(index);\n// }\n\n// function sellItem(uint price) public payable{\n//     Item storage item = items[price];\n\n//     require(msg.sender == item.owner && price == 1000);\n    \n//     // item.forSale = true;\n//     // item.price = price;\n//     // emit availabilityChanged( price, true);\n// }\n\n// function withDraw() public  payable{\n//     address payable payee = msg.sender;\n//     // Item storage item = items[0];\n//     uint payment = balances[payee];\n\n//     require(payment > 0);\n\n//     balances[payee] = 0;\n//     require(payee.send(payment));\n// }\n\n// function destroy() payable public{\n//     address payable owners = msg.sender;\n//     require((msg.sender == owners));\n//     selfdestruct(owners);\n// }\n// }\n\n\n\n\n\n\n\npragma solidity ^0.5.0;\n\ncontract Deal {\n    address public owner;\n    address public seller;\n    mapping(address => uint) public balances;\n\n\nstruct Item {\naddress seller;\naddress owner;\nbool forSale;\nuint price;\n}\n\nItem[3] public items;\n\nevent ownerChanged(uint index);\nevent priceChanged(uint index, uint price);\nevent availabilityChanged(uint index, uint price,bool forSale);\n\nconstructor() public {\n    owner = msg.sender;\n    items[0].price = 1000;\n    items[0].forSale = true;\n    items[1].price = 1000;\n    items[1].forSale = true;\n    items[2].price = 1000;\n    items[2].forSale = true;\n}\nfunction itemForSale(uint index, uint price) public {\n    Item storage item = items[index];\n\n    require(msg.sender == item.owner && price > 0);\n    \n    item.forSale = true;\n    item.price = price;\n    emit availabilityChanged(index, price, true);\n}\n\nfunction getItems() public view returns(address[] memory, bool[] memory, uint[] memory){\n    address[] memory  addr = new address[](3);\n    bool[] memory available = new bool[](3);\n    uint[] memory price = new uint[](3);\n\n    for(uint i = 0; i<3; i++){\n        Item storage item = items[i];\n        addr[i] = item.seller;\n        price[i] = item.price;\n        available[i] = item.forSale;\n    }\n    return (addr, available, price);\n}\n\nfunction buyItem(uint index) public payable{\n    Item storage item = items[index];\n\n    require(msg.sender != item.owner && item.forSale && msg.value >= item.price);\n\n    if(address(item.seller) == address(0x0)){\n        balances[seller] +=msg.value;\n    } else{\n        balances[item.seller] += msg.value;\n    }\n    item.seller =msg.sender;\n    item.forSale = false;\n\n    emit ownerChanged(index);\n}\n\nfunction withDraw() public  payable{\n    address payable payee = msg.sender;\n    \n    uint payment = balances[payee];\n\n    require(payment > 0);\n\n    balances[payee] = 0;\n    require(payee.send(payment));\n}\nfunction sell(uint index) public{\n    Item storage item = items[index];\n    item.forSale = true;\n    seller = msg.sender;\n}\nfunction destroy() payable public{\n    address payable owners = msg.sender;\n    require((msg.sender == owners));\n    selfdestruct(owners);\n}\n}\n",
  "sourcePath": "/home/sreeharsha/Documents/RajeshD/assetzchain/solidity/contracts/Deal.sol",
  "compiler": {
    "name": "solc",
    "version": "0.5.8+commit.23d335f2.Emscripten.clang"
  },
  "schemaVersion": "3.0.10",
  "updatedAt": "2019-07-05T09:35:53.524Z",
  "devdoc": {
    "methods": {}
  },
  "userdoc": {
    "methods": {}
  }
}