{
  "contractName": "Hello",
  "abi": [
    {
      "constant": true,
      "inputs": [],
      "name": "sayHello",
      "outputs": [
        {
          "name": "val",
          "type": "bytes32"
        }
      ],
      "payable": false,
      "stateMutability": "pure",
      "type": "function"
    },
    {
      "constant": false,
      "inputs": [
        {
          "name": "change",
          "type": "uint256"
        }
      ],
      "name": "changeHello",
      "outputs": [
        {
          "name": "",
          "type": "uint256"
        }
      ],
      "payable": false,
      "stateMutability": "nonpayable",
      "type": "function"
    },
    {
      "constant": true,
      "inputs": [],
      "name": "returnHell",
      "outputs": [
        {
          "name": "",
          "type": "uint256"
        }
      ],
      "payable": false,
      "stateMutability": "view",
      "type": "function"
    }
  ],
  "bytecode": "0x6080604052601760005534801561001557600080fd5b50610128806100256000396000f3fe6080604052348015600f57600080fd5b5060043610603c5760003560e01c806387314ca1146041578063e978597f146080578063ef5fb05b14609c575b600080fd5b606a60048036036020811015605557600080fd5b810190808035906020019092919050505060b8565b6040518082815260200191505060405180910390f35b608660cb565b6040518082815260200191505060405180910390f35b60a260d4565b6040518082815260200191505060405180910390f35b6000816000819055506000549050919050565b60008054905090565b60007f48656c6c6f20426f69000000000000000000000000000000000000000000000090509056fea165627a7a723058206284aebd0d73074ae12be6a8af54c7012791cf1da9901c4fdd8497298f11e3ee0029",
  "source": "pragma solidity ^0.5.0;\n\n\ncontract Hello {\n  // constructor() public {\n  // }\n\n  uint hell = 23;\n\n  function sayHello() public pure returns(bytes32 val){\n    val = \"Hello Boi\";\n  }\n\n  function changeHello(uint change) public returns(uint){\n    hell = change;\n    return hell;\n  }\n  function returnHell() public view returns(uint){\n      return hell;\n  }\n}\n",
  "sourcePath": "/home/sreeharsha/Documents/RajeshD/assetzchain/solidity/contracts/Hello.sol",
  "compiler": {
    "name": "solc",
    "version": "0.5.8+commit.23d335f2.Emscripten.clang"
  },
  "schemaVersion": "3.0.10",
  "updatedAt": "2019-07-02T05:57:42.448Z",
  "devdoc": {
    "methods": {}
  },
  "userdoc": {
    "methods": {}
  }
}